:020000040001F9
:10800000F83C0020DD820100E5820100E7820100EA
:10801000E9820100EB820100ED8201000000000016
:10802000000000000000000000000000EF820100DE
:10803000F182010000000000F3820100F5820100DE
:10804000FD870100F78201008D910100F782010098
:10805000F78201000000000091850100298A0100DB
:10806000F7820100F7820100F7820100F782010028
:10807000F7820100F7820100F7820100F782010018
:10808000F7820100058A0100F7820100F7820100F2
:10809000F7830100F7820100FB830100F7820100F2
:1080A000F7820100F78201000000000000000000DC
:1080B000F7820100F78201000000000000000000CC
:1080C00000000000000000000000000000000000B0
:1080D00000000000000000000000000000000000A0
:1080E0000000000000000000000000000000000090
:1080F0000000000000000000000000000000000080
:10810000000000000000000000000000000000006F
:10811000000000000000000000000000000000005F
:10812000000000000000000000000000000000004F
:10813000000000000000000000000000000000003F
:10814000000000000000000000000000000000002F
:10815000000000000000000000000000000000001F
:10816000000000000000000000000000000000000F
:1081700000000000000000000000000000000000FF
:1081800000000000000000000000000000000000EF
:1081900000000000000000000000000000000000DF
:1081A00000000000000000000000000000000000CF
:1081B00000000000000000000000000000000000BF
:1081C00000000000000000000000000000000000AF
:1081D000000000000000000000000000000000009F
:1081E000000000000000000000000000000000008F
:1081F000000000000000000000000000000000007F
:10820000DFF80CD000F01EF900480047D9BA010091
:10821000F83C002030B450E8012F93B2C4892344C5
:108220008489A34228BF1B1B0489A34202BFBFF35A
:108230002F8F002007E0C3EA020340E80134002C3E
:10824000E9D14FF001000A6030BC704750E8012FBF
:10825000C2EA024240E801210029F7D1704730B458
:1082600050E8022F1FFAA2F3C488A34202BFBFF353
:108270002F8F00200DE0C48923448489A34228BFA6
:108280001B1BC2EA034340E80234002CE8D14FF044
:1082900001000A6030BC704750E8022FC2EA224257
:1082A00040E802210029F7D17047034653E8022F26
:1082B000D988B2EB324F4FF0000017BF92B241EABB
:1082C000014142EA014104E05A68B2EB324F08BF73
:1082D000012043E80212002AE8D17047064880478F
:1082E00006480047FEE7FEE7FEE7FEE7FEE7FEE79B
:1082F000FEE7FEE7FEE7FEE7B18E01000182010026
:108300002DE9F05F0546002092469B4688460646CA
:10831000814640241BE0284641464746224600F05D
:1083200080F853465A46C01A914110D31146184658
:10833000224600F067F82D1A67EB01084F462246E7
:108340000120002100F05EF817EB00094E41201ECD
:10835000A4F10104DFDC484631462A464346BDE825
:10836000F09F40EA01039B0703D009E008C9121FF0
:1083700008C0042AFAD203E011F8013B00F8013BDF
:10838000521EF9D27047D2B201E000F8012B491E0B
:10839000FBD270470022F6E710B513460A460446A2
:1083A0001946FFF7F0FF204610BD421C10F8011BD4
:1083B0000029FBD1801A704730B5044600200346DF
:1083C00000E05B1C934203D2E05CCD5C401BF8D024
:1083D00030BD034611F8012B00F8012B002AF9D11A
:1083E00018467047A0F50830B0F5504F01D2012073
:1083F00070470020704705F09FBB04F0BDBA70477E
:10840000636A7900202A04DB203A00FA02F1002096
:1084100070479140C2F1200320FA03F319439040C2
:108420007047202A04DB203A21FA02F0002170472D
:1084300021FA02F3D040C2F12002914008431946CC
:1084400070470000064C074D06E0E06840F001036D
:1084500094E8070098471034AC42F6D3FFF7D4FEF7
:1084600018E6010038E6010030B58C1810F8012B31
:1084700012F00F0301D110F8013B120906D110F8D8
:10848000012B03E010F8015B01F8015B5B1EF9D1E1
:1084900001E001F8013B521EFBD1A142E6D30020CE
:1084A00030BD0000064890F84B10491CC9B280F856
:1084B0004B103F2902D9002180F84B1004F05EBE1A
:1084C000D42D002009490220086009480268002ACA
:1084D000FCD0064B012210331A600268002AFCD03F
:1084E00000220A6001680029FCD0704704E50140C1
:1084F00000E4014070B5B0F5204F0CD8050B000525
:1085000000D06D1C2226002403E0301900F016F87C
:10851000641CAC42F9D3322003F02BFC012070BD67
:10852000044801210160034A0349F8321160002127
:1085300001607047080501403546526E10B501468E
:108540000003FFF74FFF00280CD0074A00201070EF
:10855000084628DF4CF2503003F056FCBDE81040CE
:1085600005F022BD10BD00001E2B002010B50346F3
:10857000FFF738FF002808D0044C00202070184670
:1085800029DFBDE8104005F00FBD10BD1E2B0020F7
:108590002DE9F04700268CB0DFF86091B0464FF42B
:1085A0008075012437460696284604F037F838B11E
:1085B000D9F80403204203D0284604F025F82643C6
:1085C0002D1D64007F1CADB2082FEDD34FF4BE7497
:1085D000204604F023F848B1204604F015F846F090
:1085E000004606AA0121002003F0FAFF444D16F0D0
:1085F000FF0F15D00127002437420DD009EB84016D
:10860000D1F81005D1F81015C0F3042055F8242036
:10861000C1F3014102B190477F00641C082CEBD3E9
:10862000002E67DA4FF0FF30CDE90880002634468F
:10863000281910F8507F90F9000027F0C008401C5E
:1086400044D009A9404603F0DBFA58B34FEA971922
:10865000404602F0FBFA55F820701FB1B9F1030F44
:1086600003D00FE0B9F1030F30D108A84FEAD802C8
:1086700008F00703815C4FF0010C0CFA03FC41EA9F
:108680000C0181544FF0A04101EB8800D0F80007A5
:1086900006A9C0F3014A404603F0B2FA18B1BAF194
:1086A000020F03D012E0BAF1030F0FD1B9F1030F9B
:1086B00008D1BAF1020F1BD00221404603F069FF36
:1086C000761CF6B217B149464046B847641C042CE4
:1086D000AED3002E0ED06A460121002003F080FFA9
:1086E00006990098884205D00690089809909DE761
:1086F0000321E2E70CB0BDE8F08700000060004015
:108700007C2F002010B5002303E0CC5CC4545B1C1C
:108710009BB29342F9D310BD3EB504460C490020EC
:1087200003F04AFE18B10BA2372101F0F3F9124A07
:1087300007CA8DE807008DF807406946002003F05E
:108740000BFE002803D003A23B2101F0E3F93EBD5C
:1087500049D101002E2E5C6D6F6B6F5F7372635C8D
:108760006472697665725C626174746572795F6364
:108770006865636B2E630000B4E0010010B501462C
:108780000124032203A0FFF717FE00B100242046B6
:1087900010BD0000636A790000F01F0201219140C2
:1087A0004009800000F1E020C0F88012704700F01E
:1087B0001F02012191404009800000F1E020C0F833
:1087C0000011704700F01F02012191404009800014
:1087D00000F1E020C0F8001270474907090E002898
:1087E00006DA00F00F0000F1E02080F8141D704759
:1087F00000F1E02080F80014704700002DE9F041FE
:108800004FF48077384603F0A5FA0124104EA507EF
:1088100048B1384603F0A5FA0120C5F80803747082
:10882000002002F0DDFA4FF48277384603F092FA26
:1088300000280BD0384603F094FA0220C5F808034C
:10884000B470BDE8F041012002F0CABABDE8F08181
:10885000682F00202DE9F741264D87B02B46AA88C6
:108860000344A2F57F4493F82630FF3C28D03BB365
:10887000BDF82420142A29D842B3002205EBC000F9
:108880000292039204920592C088ADF8080009A8EC
:108890000127CDE904018DF80A7014464FF47A7867
:1088A000A88802A9A6DF060016D0404602F055FBB4
:1088B000641CA4B2032CF3D330460AB0BDE8F081A7
:1088C0000DA1002000F0A0F90520F6E717A1002077
:1088D00000F09AF90720F0E7BDF82400BDF8082061
:1088E000CDE9007010231AA1002000F08DF90020BE
:1088F000E3E70000E82C00204E52465F4552524FFD
:10890000525F4E4F545F464F554E4420636F6E6E1C
:108910005F68616E646C653D25642C2C2C2C6E6F39
:108920007469663D25640D0A00000000424C455FF5
:108930004E55535F4D41585F444154415F4C454E45
:1089400020657272206C656E3D25640D0A00000082
:10895000736C6176652073656E64207375636365FF
:1089600073733A68616E646C653A25642075756945
:10897000643A2564202069735F646174613A2564F8
:10898000206C656E3A25640D0A00000010B501F0F8
:1089900013F918B109A2272101F0BCF802F080FFF9
:1089A00004F044FE47F2305005F012FB02F07CFF69
:1089B00000F0E4FFBDE8104004F02ABB2E2E5C6DF1
:1089C0006F6B6F5F7372635C6472697665725F6907
:1089D0006E69742E630000003EDF002803D002A2FF
:1089E000352101F097B870472E2E5C6D6F6B6F5F6D
:1089F0007372635C6472697665725F696E69742E06
:108A00006300000007480021C0F84011C0F844117D
:108A1000C0F84811C0F84C11C0F80011C0F804119A
:108A200005F03CB9001001402DE9FE434FF4827877
:108A3000404603F041FE4C4F00254C4C012600B34C
:108A4000404603F041FE94F82E0010B194F82F1028
:108A5000D1B18DF80050616801912189ADF80810FD
:108A6000E26832B1218B618362602181E56010B1DF
:108A700002E0257400E03E6021686846884784F87B
:108A80002F5094F82E0060B34FF48077384603F0EF
:108A900013FE30B3384603F017FE628B94F82D10A6
:108AA0008A420AD9A2EB010080B260832289A2EB3C
:108AB0000000626802EB400005E007D1E06828B1E1
:108AC00084F82F60658303F0B1FD04E08A4202D18F
:108AD00084F82F606583404603F0F6FD2248001DB0
:108AE00006604FF48877384603F0E6FD48B1384613
:108AF00003F0EAFD257402208DF800002168684625
:108B000088474FF48A77384603F0D6FD28B13846B7
:108B100003F0DAFD2574BDE8FE834FF000484FF402
:108B20008C7967691DE000BFB7FA87F028FA00F179
:108B300009EB80058F43284603F0BEFD88B1284627
:108B400003F0C2FDA5F58C75E8088DF8040045F327
:108B50008000401C8DF800608DF805002168684693
:108B60008847002FE0D1D6E700700040F02F0020AA
:108B7000F8B506460C4814460D46007808B900F0D2
:108B80000DFB002300938DF80030684601F092F849
:108B900022462946304600F009F804469DF80000B8
:108BA00001F0ACF82046F8BD7433002070B50E46D5
:108BB000144900EB400001EBC0051446E86A183583
:108BC00020B101280FD0022805D113E0284600F07B
:108BD00019FBA04201D2002411E02246314628466A
:108BE00000F036FC0BE0284600F00CFBA042F4D26B
:108BF0000446F2E73146284600F0FDFB04462046D5
:108C000070BD0000743300200FB408B504A90091B2
:108C10006A46039900F004F801B05DF814FB000007
:108C20002DE9F04188B00646644802904FF4807008
:108C30000025CDE90305CDE9055690460C4600BF59
:108C400014F8011B002973D0252908D002A800F0D0
:108C5000B3FB05980028F3DA08B0BDE8F0810020E6
:108C60000122217823291ED02B2919D02D2902D0A9
:108C7000302908D102E040F0010001E040F002009C
:108C8000641C002AEDD100222178A1F130030A2BC7
:108C90000CD202EB820201EB4202303A641CF3E791
:108CA00040F00400ECE740F00800E9E70023CFB211
:108CB0002E2F0BD114F8011FA1F130070A2F05D276
:108CC00003EB830301EB4303303BF3E76C290DD047
:108CD00068290BD0702954D00BDC252916D05829CF
:108CE00031D063290CD0642913D114E014F8011B8E
:108CF000ECE7732934D075291BD0782909D122E0FB
:108D0000D8F80000011DC8F80010017802A800F092
:108D100053FB641C9DE7D8F800100F1DC8F80070C5
:108D20000968CDE900200A2202A800F077FAF0E7EE
:108D300033E0D8F800100F1DC8F800700968CDE9BD
:108D400000200A2208E0D8F800100F1DC8F80070B3
:108D50000968CDE90020102202A800F0C3FAD8E784
:108D6000D8F80000011DC8F80010076817F8011BAB
:108D70000029CED002A800F01FFB05980028F5DAE4
:108D8000C7E7D8F80000011DC8F8001001680820E6
:108D9000CDE9000503461022DEE7059800287FF79D
:108DA0005BAF049820B1024604493046FFF7E0FE6D
:108DB000DDE90410084405904EE70000BC330020B4
:108DC00070B50E4C0025617811B16570FFF7A4FCF9
:108DD00001210B4803F06EFA03F03CFBE5604FF411
:108DE0007A7505E0E068401CE060284602F0C6FFA6
:108DF00003F028FB0028F5D170BD0000F42A002004
:108E0000182D002017494FF461624868401C4860E3
:108E1000B0FBF2F041F2B002904202D30020486071
:108E200001E00C2801D208707047A0F10C020C2A56
:108E300001D20C20F7E7A0F11802B2F5347F04D874
:108E40001822B0FBF2F00C30EDE7A0F2E92240F678
:108E5000C7539A42E8D2A822A0F53A70B0FBF2F0CC
:108E60002A30E0E7EC2A00200E492B2809D9C0EB74
:108E7000C0000D4A00EB400002EBC0004FF46162FD
:108E800005E0A0F10D021E2A04D8084A0C38504310
:108E9000486070470D28FCD24FF4616210FB02F06D
:108EA000F6E70000EC2A002058E7FFFF80510100A0
:108EB000F0B5A348A24B012600781B1D1A1D4FF0E8
:108EC000805106280BD11C78240708D11478C4F3EC
:108ED0000314032C06D0042C04D0052C02D0062841
:108EE00007D011E0B1F82443964DC4F304242C605C
:108EF00002E01C78240707D11478C4F30314032C70
:108F000002D1924D904C6C67D1F83051D1F8444267
:108F10008F4FC4F342343C6006280CD11C782407E0
:108F200009D11478C4F30314032C04D1894C2768A5
:108F300027F0807727604FF080470024C7F80C4166
:108F4000C7F81041824F3F1F3C60062807D11F78A9
:108F50003F0704D11778C7F30317032F02D0062861
:108F600008D01FE0DFF8E8C103270CF1640CCCF84F
:108F7000007007E01F783F0714D11778C7F3031775
:108F8000032F0FD1DFF8D0C10527CCF80070724F46
:108F900078373E60704F08373C600CF1040C3F2777
:108FA000CCF800706D4F3F68DFF8B4C1CCF80070AA
:108FB0006A4F3F1D3F680CF1040CCCF80070674FFE
:108FC00008373F680CF1040CCCF80070634F0C3785
:108FD0003F680CF1040CCCF80070604F10373F680C
:108FE0000CF1040CCCF800705C4F14373F680CF1A6
:108FF000040CCCF80070594F18373F68DFF860C197
:109000000CF1200CCCF80070544F1C373F680CF169
:10901000040CCCF80070514F20373F680CF1040C61
:10902000CCF800704D4F24373F680CF1040CCCF89D
:1090300000704A4F28373F680CF1040CCCF80070E0
:10904000464F2C373F680CF1040CCCF80070434FAE
:1090500030373F68DFF808C10CF1400CCCF80070E5
:109060003E4F34373F680CF1040CCCF800703B4F96
:1090700038373F680CF1040CCCF80070374F3C37A0
:109080003F680CF1040CCCF80070344F40373F6857
:109090000CF1040CCCF80070DFF8C8C0FB27CCF84A
:1090A0000070062813D11F783F0710D11778C7F337
:1090B0000317032F03D0042F01D0052F07D1D1F8B8
:1090C0005872DFF8A4C007F04F07CCF800702748AB
:1090D0000268D20702D06FF001020260062D08D1AB
:1090E000D1F83401062804D12148016841F4806197
:1090F000016020480168C9071ED01F4A16601F4939
:109100000B68002BFCD0036803F0FE0303600868C3
:109110000028FCD0146008680028FCD0BFF34F8FF3
:109120000C48F0380168164A01F4E061114301600F
:10913000BFF34F8F00BFFDE7134912480860F0BD31
:10914000E00F00F0403501400DF0ADBA00C007401F
:109150003C050040FCED00E0105600400404001007
:1091600020C5004018F50040E40E00400004004017
:109170003C1700400C12001004E5014000E40140DF
:109180000400FA050090D003982B00200149024802
:1091900004F0BEBDD42F00200020004010B5124CBA
:1091A00001202061606111A0A061A4F58670E061DA
:1091B0004FF4807020620020A06260620BA1C4E9BD
:1091C0000B01A4F10C0161630A21A1632064E06337
:1091D000606409A1E01DFFF7FCF808A12046FFF735
:1091E000F8F82020A07110BD743300205465726D12
:1091F000696E616C000000005254540053454747AB
:10920000455200000269C1688A4203D88068401A4A
:10921000104400E0501A401E704700002DE9FC5F2A
:109220000E008146DDE90C47C6F1000098469346E2
:10923000824600D40846012503E000BF90FBFBF006
:109240006D1C5845FADAA84500D9454624B1002ED0
:1092500001DB780700D5641EB80702D5B8F1000F0E
:109260000FD0F8070DD164B1A5420AD2202148469B
:10927000641E00F0A1F8D9F80C000028F3DABDE86C
:10928000FC9FD9F80C000028F9DB002E02DA5646C4
:109290002D2102E0780707D52B21484600F08CF8F5
:1092A000D9F80C000028EADB07F0030002280FD1F0
:1092B000B8F1000F0CD15CB1A54209D2302148466B
:1092C000641E00F079F8D9F80C000028F3DAD6E72C
:1092D000CDE9004743465A463146484600F002F879
:1092E000CDE700002DE9F84F8246DDE90A4B012663
:1092F000984691460D460846374602E0B0FBF9F025
:109300007F1C4845FAD2B84500D947465FEACB7082
:1093100017D1B4B15FEA8B7002D5B8F1000F02D05B
:10932000202000900BE03020FBE75046641E00999F
:1093300000F042F8DAF80C00002838DB0CB1A74244
:10934000F3D3DAF80C00002831DB00BFB8F1010FCD
:1093500002D9A8F1010803E0B5FBF6F0484502D3B5
:1093600006FB09F6F2E7DFF84C8000BFB5FBF6F02C
:1093700000FB165518F80010504600F01DF8DAF8FA
:109380000C00002803DBB6FBF9F6002EEED15FEAF5
:10939000CB700CD0002C0AD0A74208D22021504616
:1093A000641E00F009F8DAF80C000028F2DABDE8D3
:1093B000F88F00009CE2010010B50446D4E90130AA
:1093C000421C934205D323681954A260E068401CF4
:1093D000E060D4E90102824209D121682069FFF7E7
:1093E000C7FBA168884203D04FF0FF30E06010BD9A
:1093F0000020A06010BD2DE9F047C46817468946DB
:1094000006464FF000083069A04201D9051B02E072
:10941000B168201A0D1AB0686D1E001BA84200D852
:109420000546BD4200D33D4670682A462044494661
:10943000FEF797FFB0687F1B2C44A844A944A042C4
:1094400000D10024F460002FDDD14046BDE8F08754
:109450002DE9F041C6680446174688468068851B9A
:109460006068BD4206D93044FEF77BFFF019E0602A
:10947000BDE8F0812A463044FEF773FF7E1B08EBFF
:10948000050132466068FEF76CFFE660F0E7000019
:109490000FB4084B10B504A902AA039800F038F8DD
:1094A000044602A9002000F064FA204610BC5DF8D2
:1094B00014FB00007399010002E008C8121F08C1E4
:1094C000002AFAD17047002001E001C1121F002AD2
:1094D000FBD170470121202803DA81400548014073
:1094E00003E0402802DA2038814009B101207047AA
:1094F00000207047FC06FFBD082806D228B10128CD
:1095000003D0042801D001207047002070470000DC
:109510002DE9FF4F8DB00F460546002606E02528B1
:109520000BD0DDE90F1290476D1C761C28780028BF
:10953000F5D111B03046BDE8F08F0024A246A14617
:109540000122EC4900E0044315F8013F203B02FAF8
:1095500003F00842F7D128782A2810D06FF02F02A4
:109560002878A0F13001092914D80AEB8A0102EB0E
:10957000410144F0020400EB010A6D1CF0E701CF49
:109580005FEA000A03D544F40054CAF1000A44F02B
:1095900002046D1C28782E2817D115F8010F44F00D
:1095A00004042A280ED06FF02F022878A0F1300191
:1095B00009290AD809EB890102EB410100EB0109F5
:1095C0006D1CF2E757F8049B6D1C28786C280FD0AF
:1095D00006DC4C2817D068280DD06A2814D104E086
:1095E000742810D07A280FD10DE044F400140AE05A
:1095F00044F4801401E044F440146978814202D1BB
:1096000004F580146D1C6D1C2A786E2A1FD00CDCAA
:10961000632A31D004DC002A8BD0582A11D1A3E070
:10962000642A68D0692A0CD165E0732A2ED004DC44
:109630006F2A73D0702A04D19BE0752A6FD0782AE4
:109640006ED01046DDE90F129047761C50E1C4F34E
:109650000250022806D0032809D0042801CF09D0DF
:10966000066045E101CFF117C0E9006140E101CF9B
:1096700006803DE106703BE117F8040B8DF8000011
:1096800000208DF80100EB46012003E057F804BBF1
:109690004FF0FF3061074FF0000102D40DE008F1F8
:1096A0000101884649450FDA8045F8DB1BF80810B0
:1096B0000029F4D108E008F1010188468142FADB73
:1096C0001BF808100029F6D1DDE90F23AAEB0800EA
:1096D0008146214600F036F9304400EB080604E0EC
:1096E000DDE90F121BF8010B9047B8F10108F7D222
:1096F00021464846F7E00A21C4F302534FF0000B1D
:109700000891022B04D001CFC117032B09D00AE026
:10971000FF1D27F00707F7E8020108E032E01FE02D
:1097200020E000B2C117042B01D140B2C117031EC3
:1097300071F1000307DA4FF0000CD0EB0C006CEB7A
:1097400001012D2302E0230504D52B238DF82430BD
:10975000012303E0E30701D02023F7E7984658E010
:109760000A2110E010210EE010204FF0000B0890AD
:109770000CE010214FF0000B44F004044FF00809F6
:10978000089103E008214FF0000B0891C4F3025345
:10979000022B04D001CF0021032B06D006E0FF1DD1
:1097A00027F00707F7E8020103E080B2042B00D19D
:1097B000C0B24FF0000823072BD5702A07D0DDF880
:1097C00020C08CF0100C5CEA0B0C05D00EE040239E
:1097D0008DF82430012308E050EA010306D030233D
:1097E0008DF824308DF8252002239846DDF820C01E
:1097F0008CF0080C5CEA0B0C0BD150EA010301D190
:10980000630706D530238DF824304FF00108A9F105
:109810000109582A04D038A20B9208AA0A920BE038
:109820003AA2F9E75B46089AFEF76AFD0B9B9B5C40
:109830000A9A521E0A92137050EA0102F2D10A9853
:10984000ADEB000000F1200B600702D524F480345A
:1098500001E04FF00109D94502DDA9EB0B0000E062
:10986000002000EB0B0141440890AAEB010AE00341
:1098700006D4DDE90F232146504600F063F8064484
:109880004FF0000908E009A911F80900DDE90F12FD
:10989000904709F10109761CC145F4DBE0030CD5C2
:1098A000DDE90F232146504600F04CF8064404E061
:1098B000DDE90F1230209047761C0899481E089069
:1098C0000029F5DC08E00A980A990078491C0A91F9
:1098D000DDE90F129047761CBBF10001ABF1010BE3
:1098E000F1DC21465046DDE90F2300F019F806446B
:1098F0006D1C1BE609280100303132333435363710
:1099000038396162636465660000000030313233CB
:10991000343536373839414243444546000000006B
:109920002DE9F041044600251E461746880404D45C
:1099300005E039462020B0476D1C641EF9D5284645
:10994000BDE8F0812DE9F041044600251E46904611
:10995000C80301D5302700E02027880404D505E09E
:1099600041463846B0476D1C641EF9D52846BDE80F
:10997000F0810A68531C0B601070704710B500F03E
:1099800011F80448002240F6CD410068BDE81040BF
:1099900000F03CB9A0E001000149C8747047000024
:1099A000CB2A002010B5074A0021074800F0F0F844
:1099B000002805D0BDE8104004A2E62100F0AAB8B6
:1099C00010BD00005DB60100A0E001002E2E5C6D10
:1099D0006F6B6F5F7372635C626C655C626C655F1A
:1099E0006164762E630000007CB514460E46054681
:1099F000012823D06FF48050281821D0B0F5405FA3
:109A000023D06FF44051C84206D1238816A100200C
:109A10006268FFF7F9F804E032461BA10020FFF767
:109A2000F3F821480068C00700D000BE224602B00B
:109A300031462846BDE8704000F078B81BA100E030
:109A400023A10020FFF7E0F8EBE7A06803F046F859
:109A5000034621886068CDE9000127A10020A268A3
:109A6000FFF7D2F8DDE70000415353455254494F08
:109A70004E204641494C45442061742025733A25C7
:109A8000752E2E2E0D0A0000554E4B4E4F574E2070
:109A90004641554C54206174203078253038582E7A
:109AA0002E2E0D0A00000000F0ED00E0534F46544A
:109AB0004445564943453A20415353455254494F32
:109AC0004E204641494C45442E2E2E0D0A000000E2
:109AD000534F46544445564943453A20494E564112
:109AE0004C4944204D454D4F525920414343455325
:109AF000532E2E2E0D0A00004552524F522025752E
:109B0000205B25735D2061742025733A25752E2E08
:109B10002E0D0A000EB5ADF80010CDE901206A4601
:109B2000002144F20100FFF75FFF0EBD08B50123DD
:109B30008DF800309DF80030144B186059609A6021
:109B40006FF48041401807D001280FD1DA60D8683F
:109B500000889861D86807E01A61186980685861C0
:109B600018690088986118694068D8611868586851
:109B70009868D868186958699869D86972B600BF3A
:109B80009DF800000028FBD162B608BD20300020FF
:109B9000084B9B7823B12AB120B10068037C1BB12C
:109BA0000820704707207047002303744174426106
:109BB000184670474030002070B503F09BFA1048FB
:109BC00000240F21047044700E4D817014206C60CD
:109BD0002C706C70FEF7E0FD07211420FEF7FDFDF0
:109BE0001420FEF7E4FD0848046007211120FEF769
:109BF000F4FD0548001F0068A860002070BD00004B
:109C000040300020742B0020081501402DE9FC474E
:109C1000DFF8789099F8023073B368B3052902D25F
:109C20000720BDE8FC87436933B3437C012B25D073
:109C3000002704460025884616468DF800506846E1
:109C400000F038F801A804F073F9C8B101210170DF
:109C50000F4944600968C0E90218C0E904769DF81C
:109C6000040089F801009DF8000000F047F8142076
:109C7000FEF7A8FD2846D4E70820D2E70F46D8E72C
:109C800004259DF8000000F039F8F3E7403000208B
:109C9000041501400649897839B130B1416921B1D3
:109CA00000210174022103F0D5BF08207047000095
:109CB0004030002030B5EFF3108172B60D4A946841
:109CC000012324B10370002900D162B630BD936036
:109CD0004FF0E023D3F88051074C25401560C3F8BE
:109CE0008041D3F8844154605A17C3F8842100227C
:109CF0000270E8E7AC310020FC06FFBD0B498A6822
:109D0000002A11D000280FD1EFF3108072B60B6833
:109D10004FF0E022C2F800314B68C2F80431002253
:109D20008A60002800D162B670470000AC31002084
:109D30002DE9F0430546007D93B00E460024A0B106
:109D400007949DF81C0020F00F00401C20F0F0004C
:109D500010308DF81C00707B8DF81D009DF81E00E2
:109D600020F00600801C8DF81E001C216846FEF7BE
:109D700011FB9DF8000040F002008DF80000297DE5
:109D800011B140F0100001E020F010008DF800004B
:109D9000019403940494287D00B107A8CDE905043B
:109DA00001278DF8427042F61920ADF840000D945D
:109DB000B07B8DF83400F07B8DF835009DF83600CF
:109DC000142120F00600801C20F019008DF83600C8
:109DD000307B8DF8440008A8FEF7DCFA0DF140084E
:109DE0000DF13409ADF8287011A8CDE90889ADF856
:109DF0002A40ADF82C700C90A888AB1D08AA6946C3
:109E0000A2DF002838D1B06898B38DF8427042F6CE
:109E10000810ADF840000D94307C8DF834009DF8AA
:109E2000350020F0FF008DF835009DF8360020F059
:109E30000600801C20F019008DF836000EA8B168CD
:109E400000F05DFE0646142108A8FEF7A3FAADF85F
:109E500028600EA8CDE90889ADF82A40ADF82C603D
:109E60000C90E88805F10E0208A9A3DF002803D1B1
:109E700001E0FFE7EC81002013B0BDE8F0830000B3
:109E800000B585B014216846FEF784FA9DF80D00F0
:109E9000012120F00F00401C20F0F00010308DF860
:109EA0000D009DF80E008DF8041020F00F00401CEE
:109EB00020F0F00010308DF80E009DF80F0020F01B
:109EC000FF008DF80F009DF8100020F00F00401CDF
:109ED00020F0F00010308DF810000020009002906B
:109EE00001F020FC8DF80C006946064800F01CF9D2
:109EF000002804D0044A4FF49471FFF70BFE05B01C
:109F000000BD0000602C00209C9F010010B588B0AF
:109F100000F0FCFD00F0A0FD01F094F90024009495
:109F20001020ADF800003C200194ADF80200ADF81F
:109F300004404FF4C870ADF8060068467ADF18B1E7
:109F400016A2F021FFF7E6FD01F0BAFBFFF798FF3C
:109F500001F034F904F004F81C216846FEF71AFAFF
:109F60004FF42030CDE900404FF4702002900320E0
:109F70008DF80C001048059010480690ADF80E4082
:109F80008DF81040684600F0A1F9002804D003A223
:109F900040F26D11FFF7BEFD08B010BD2E2E5C6DB6
:109FA0006F6B6F5F7372635C626C655C626C655F44
:109FB000696E69742E63000045CB0100B5AE0100E7
:109FC00010B501F0BDFB1A4C00231A46E178194880
:109FD00072DF01F0E9FB174A23791F32E178154857
:109FE00072DF020003D014A10020FEF70DFE11491C
:109FF00000204FF48042086448648864C86440319B
:10A00000087008724A8188810A480121403073DF54
:10A0100004000BD0024611A10020FEF7F5FD2046FA
:10A02000BDE8104014A2B821FFF774BD10BD0000B8
:10A03000C62A0020782C00205B6164765F6461741E
:10A04000615F70616464696E675D206572725F63F1
:10A050006F64653D2578200D0A0000005B626C6529
:10A060005F6164765F73746172745D2020657272E3
:10A070003D307825780D0A002E2E5C6D6F6B6F5F7A
:10A080007372635C626C655C626C655F6164762EA2
:10A090006300000073B586B0040034D0217C9DF8C5
:10A0A0001C20002091422CD0002501260095ADF8FF
:10A0B000006007A8ADF802500190E188608A6A4606
:10A0C000A4DF00281DD19DF81C002074608AA0F533
:10A0D0007F41FF3919D0207DB8B1029503950495D1
:10A0E0000595E088ADF80800BDF80200ADF80C0059
:10A0F00001988DF80A60CDF810D00590608A02A909
:10A10000A6DF08B070BD0E20FBE70820F9E70000CD
:10A1100010B501F007FBC1B2BDE810400148FFF7E0
:10A12000B9BF0000602C002038B50D4604001BD0DC
:10A13000D5B1286820604FF6FF70608228792075BD
:10A14000FF20207401208DF8020041F60F00ADF8C9
:10A150000000221D69460120A0DF002803D1294606
:10A160002046FFF7E5FD38BD0E2038BDF0B502787A
:10A1700085B0EA2A03D1C278131D8B4204D0002394
:10A180001A460D21184620E087784478A7F1200C64
:10A1900000254C49AA264C4BBCF1090F17D2DFE829
:10A1A0000CF00518233A505F6B7F8D0024B1012C11
:10A1B0000DD1012A02D041E008795AE000790871F6
:10A1C00047E0012334E03946204602F09CFC05B00C
:10A1D000F0BD24B1012CFAD1012A02D02EE08878FA
:10A1E00047E00079488034E024B1012CEFD1102AF7
:10A1F0000AD023E0002069461A5C0A54401C10284B
:10A20000FADB10230A46DEE7011D2E481022383003
:10A21000FEF7A7F81DE024B1012CD8D1022A09D0FD
:10A220000CE0187C8DF80000587C8DF801000223AA
:10A230006A46C8E78088A1F848000AE08DF8005017
:10A24000BFE75CB1012CC2D1012AF7D1007981F8B6
:10A250004A008DF8006002F091FFB2E7987C08E0B8
:10A2600034B1012CB3D1012AE8D100790870F0E7AC
:10A27000187D8DF80000A4E75CB1012CA7D1012A5C
:10A28000DCD1007903F080F80028D7D08DF8006089
:10A2900097E701F041FA8DF800003F2891D996E741
:10A2A0004CB1012C93D1012AC8D18DF800600079FE
:10A2B00081F84B0085E791F84B00DAE7012CE5D0F7
:10A2C00085E70000D42D0020CB2A002070B50400C3
:10A2D00012D001461C221448FEF743F81248134DD1
:10A2E0000560206850B17ADF002806D12068016837
:10A2F00029604068686005E00E2070BD0B487BDF78
:10A300000028FAD108484FF6FF711438084A20F89F
:10A31000041B0549343901600021FFF739FC00288E
:10A32000EBD0032070BD0000942E0020202B0020D5
:10A330001DDE0100074810B54068FFF7ABFC38B1DF
:10A34000042803D0082803D0032010BD112010BD1D
:10A35000002010BD802E002030B585B00D460400D1
:10A3600039D0BDB36868A8B31C4B4FF6FF7020808E
:10A370000FCB0DF1040C8CE80F0041F23050ADF81A
:10A38000000001A8811E62DF002821D1221D69463C
:10A390000120A0DF00281BD19DF80200A0712046FB
:10A3A00000F03EFE002813D1204600F0EBFD00280F
:10A3B0000ED12946204600F0ABFE002808D168687F
:10A3C000A062A86800B1E062054901200870002081
:10A3D00005B030BDFFE70E20FAE70000ACE2010057
:10A3E000BC2B00203EB500283CD000293AD0826A20
:10A3F000002A37D00A88102A23D0112A33D0502AB5
:10A4000021D0512A2ED104460A4611F8060F0228FF
:10A4100028D14888238A984224D1907B042821D0CF
:10A4200006281FD005281DD02046891C02F0AAFB53
:10A43000002817D0E16A002914D003B0BDE83040ED
:10A440000847898811E0CA8803899A420AD10822FC
:10A450008DF800200A7C12318DF808200191826A63
:10A46000694690473EBD4FF6FF7101803EBD00003A
:10A47000F0B585B00A4605002BD02888A0F57F41AD
:10A48000FF3928D01548007828B3144C1120641CDB
:10A49000012720700026ADF81070611C104603F0F3
:10A4A000B3FCBDF8101000960844ADF810000196FA
:10A4B00002960396288AADF8000004A8CDE90204AC
:10A4C0008DF80270ADF8046028886946A6DF05B0F3
:10A4D000F0BD0E20FBE70820F9E70000BC2B0020B0
:10A4E00030B585B028B30388A3F57F44FF3C22D064
:10A4F000124B1B78FBB1114B10255B1C00241D7007
:10A5000059709A7001250321ADF810100094019440
:10A5100002940394018AADF8001004A9CDE9021356
:10A520008DF80250ADF8044000886946A6DF05B0FA
:10A5300030BD0E20FBE70820F9E70000BC2B00200F
:10A540007FB5044601208DF8060041F60A00ADF8FB
:10A550000400454A01A90120A0DF00287ED12288FD
:10A5600004F13C0552B140482B46801C009042F655
:10A570002920616800F072FB002873D1228952B152
:10A5800039482B460A30009042F62420E16800F05A
:10A5900065FB002866D1228A52B133482B4612301F
:10A5A000009042F62520616900F058FB002859D13F
:10A5B000228B52B12C482B461A30009042F62720AD
:10A5C000E16900F04BFB00284CD1228C52B12648A7
:10A5D0002B462230009042F62620616A00F03EFBB6
:10A5E00000283FD1228D52B11F482B462A300090BF
:10A5F00042F62820E16A00F031FB002832D1216BBD
:10A6000071B102A802F0CCFF17482B4632300090FF
:10A61000082202A942F6232000F020FB002821D1C5
:10A62000606B58B110492B463A31009102790168AC
:10A6300042F62A2000F012FB002813D1A16B81B151
:10A6400002A802F0DBFB08482B46423000900722AC
:10A6500002A942F6502000F001FB00E002E00028D1
:10A6600000D1002004B070BD282B002010B5044696
:10A67000028888B03DA10020FEF7C6FA2188424832
:10A68000212929D011DC01293ED010291DD0112902
:10A690001DD013291ED100231A46852100887FDF93
:10A6A000002817D039A26A2135E03B2912D0512960
:10A6B00036D052291ED056290CD1A088132176DF1E
:10A6C000002807D031A2892125E0A18801E04FF6BA
:10A6D000FF71018008B010BD33A10020FEF794FA8D
:10A6E00000200090A08869468FDF0028F2D027A2C2
:10A6F000632136E000231A4619460088A9DF0028A6
:10A70000E8D022A27B2106E0A088002166DF002895
:10A71000E0D01EA28E2108B0BDE81040FFF7FAB9C4
:10A720001022A11D04A8FDF71CFE9DF810100029A1
:10A73000D0D09DF81800042803D0062801D00528A1
:10A74000C8D1022910D001208DF800004FF4C1704B
:10A75000ADF80400A0886946A8DF0028BAD00BA293
:10A76000A921FFF7D7F9B5E70220EDE7626C655F35
:10A770006576745F68616E646C65722049443A3036
:10A780007825780D0A000000C42A00202E2E5C6D6A
:10A790006F6B6F5F7372635C626C655C626C655F4C
:10A7A000696E69742E6300005048592075706461A9
:10A7B000746520726571756573742E0D0A00000052
:10A7C0002DE9F04701883B4E40F2F3194FF6FF7533
:10A7D00010291BD011293ED0122954D0502946D11E
:10A7E000C188F289841D914241D1618902293ED1FB
:10A7F0008688304601F01CF8050038D004F10C00C2
:10A8000000F079F9A8B3294630464EE0C17B87882D
:10A81000044601292BD1A846284601F009F8050075
:10A8200017D02F8000202872234843464A460168EB
:10A83000C5F80A104068C5F80E0004F1100105F1D2
:10A840000A0001F00BF86872F08900280FD1294640
:10A850002AE0042013E0808800F0EAFF040006D01C
:10A860006068FFF717FA08B102F070FD2580BDE8B7
:10A87000F087FFE76868FFF70DFA0028F7D0BDE81A
:10A88000F04702F063BD87880646384600F0D0FFE7
:10A890000400ECD02B464A4606F1080104F10A00F8
:10A8A00000F0DCFF607221463846BDE8F04700F05A
:10A8B00015BB0000942E0020202B00202DE9F0472E
:10A8C000054603883A480122A4B000F1480A102B3B
:10A8D00009D0112B4AD01A2B66D1297AB2EB111F5D
:10A8E00049D2012348E0D0E911218A430446011DE1
:10A8F00012A802F0FEFC442212A901A8FDF731FDC6
:10A90000DFF8AC900026374609F144090DF1040840
:10A910000AE000BF08EB46001D2283884946201D3F
:10A92000009702F0ABFC761C0198B042F2D8606C44
:10A93000AD88C04302F0C4FCA0F57F41FF390DD0C3
:10A9400004EB4000012385802A465146201D02F079
:10A95000F5FC01232A464946201D20E024B0E521CC
:10A96000BDE8F04713A20420FFF7D4B80023AA885B
:10A970005146001D13E000230D490446AA885031BA
:10A98000001D02F0DBFC287A0221B1EB101F01D27E
:10A99000012300E000230649AA885431201D24B079
:10A9A000BDE8F04702F0CABC24B0BDE8F087000063
:10A9B000B02E00202E2E5C636F6D706F6E656E740E
:10A9C000735C626C655C636F6D6D6F6E5C626C6511
:10A9D0005F636F6E6E5F73746174652E6300000059
:10A9E00070B51A4B0D4604000FCB8CB00DF1180C4E
:10A9F0004FF47F468CE80F0025D025B32868E0622D
:10AA0000214606A862DF00281BD120788DF82A0095
:10AA1000A21CADF828600AA90120A0DF002810D1EF
:10AA200003210BA2CDE9042101200AA3CDE90203F1
:10AA30000021CDE900010B46721C2946204600F09A
:10AA40004AFD0CB070BD0E20FBE70000A4E0010041
:10AA500061626200570000001FB5FF22062102A8B4
:10AA6000FDF791FC1C486DDF062202A91B48FDF78B
:10AA7000A3FC1949194C491E2E3C28B3D4F82E00CA
:10AA8000C1F80200608EC880481C6CDF1448017851
:10AA9000002918D000210170009108466A460191F2
:10AAA000C0F10503234493F82E301354401C0628AC
:10AAB000F6DB44F8381F616021810098C4F80A0071
:10AAC000BDF80400E0811FBDD1F80200C4F82E00DB
:10AAD000C8886086DAE70000E22A0020022E002003
:10AAE000042B002070B504460D460846FDF75DFCBA
:10AAF0002080656070BD007800F0010070470A7822
:10AB000002704978417002207047000008B501F0DA
:10AB100009FF18B10CA2CC21FEF7FCFF0020009029
:10AB20006946012001F0E6FD18B107A2D221FEF727
:10AB3000F1FF684601F02AFE002803D002A2D621C8
:10AB4000FEF7E8FF08BD00002E2E5C6D6F6B6F5F97
:10AB50007372635C626C655C626C655F696E69747C
:10AB60002E6300002DE9F04107464FF01020DFF87A
:10AB7000548040694FF43C340C2909D0A0421ED0C7
:10AB8000FDF7A0FC21464046BDE8F04100F022BDA3
:10AB9000FDF798FC3D687E68BF682146404600F09E
:10ABA00019FD084829466C3000F014FD054831466F
:10ABB000703000F00FFD034839467430E4E7BDE81B
:10ABC000F081000014100010022802D10149012078
:10ABD000887070479C2B0020022802D10149012077
:10ABE000087070471E2B002005494FF0FF320828DF
:10ABF00041F8202002D3084480F848207047000024
:10AC00007C2F0020F0B54FF0FF3512B1002308264D
:10AC100001E008230C260C4C05E000BF54F823701B
:10AC20007F1C04D05B1CB342F8D32846F0BD261825
:10AC30005DB286F8305044F82310002AF5D1E118AF
:10AC400081F84800F1E700007C2F00200249084409
:10AC500090F93000704700007C2F00202DE9F04370
:10AC60008FB01E46DDF8589015460F00804604D17F
:10AC700023A287210020FEF74DFF25B920A28821BD
:10AC80000020FEF747FF1C216846FDF783FB0024E8
:10AC90009DF80000039440F002008DF800000120B0
:10ACA00001948DF83600049405940694ADF8348030
:10ACB0000C9430788DF8300070788DF831009DF864
:10ACC0003200142120F00600801C20F019008DF8BD
:10ACD000320007A8FDF75EFB0DA807900CA80890AE
:10ACE0001448ADF82450ADF82640ADF828500B9725
:10ACF0004B4607AA69460088A2DF0FB0BDE8F08383
:10AD00002E2E5C636F6D706F6E656E74735C626C1B
:10AD1000655C626C655F73657276696365735C62BE
:10AD20006C655F6469735C626C655F6469732E63F4
:10AD300000000000282B002030B5054605480C46D1
:10AD4000002241684FF4083000F0ECF828802080A1
:10AD500030BD00009C2B00204FF40930FDF70EBDE4
:10AD60000F4930B40A780F48002352B14FF0A04485
:10AD7000D4F81045A40E14F0010F04D00B7030BCB1
:10AD800070478370FBE78178491CC9B28170022942
:10AD9000F5D10123437030BC03A10020FDF734BF7F
:10ADA0001A2B00201B2B00204D41524B335B256496
:10ADB0005D5B25645D0D0A0010B5074C61780029C4
:10ADC00009D02269521E226105D101460348FFF7CE
:10ADD0004FFBE068206110BD9C2B0020C834002090
:10ADE00070B5084C050009D010342168002907D03F
:10ADF00008682060496828468847F6E70834F4E781
:10AE000070BD0000682F00202DE9F05F26484168E2
:10AE1000F1B3DFF898B00E688146DBF80040876830
:10AE20008078E11B21F07F45ED1CB0B9DFF8808010
:10AE30004FF48030C8F84403C8F804031120FDF72C
:10AE4000ABFC1120FDF7B3FC4FF0010AC8F800A0DD
:10AE50002F2001F01FF889F802A0B54200D2354634
:10AE6000124BE8193C3320F07F401860DBF80010EB
:10AE70005A46091B21F07F41001B20F07F40C91C6E
:10AE800081420FD9106818602F2001F003F800E00C
:10AE900004E0BDE8F05F1120FDF794BCBDE8F05F71
:10AEA00002F028B9BDE8F09F742B00200415014082
:10AEB0000010014002A240F25711FEF72BBE000025
:10AEC0002E2E5C6D6F6B6F5F7372635C626C655C82
:10AED000626C655F696E69742E63000038B54A7AEA
:10AEE0000F4B62B100220A725969002906D0012273
:10AEF0008DF80020ADF802006846884738BD0A7A10
:10AF000062B19B684C68024619462046FEF77EFEF9
:10AF10000028F3D0BDE8384002F018BA5B68F1E7CA
:10AF2000942E002010B5044612B11088002211E0C2
:10AF30004FF6FF70FAE7030A43EA0023A05C58408B
:10AF4000C0F30313584080EA003080B2C3B280EAF5
:10AF50004310521C8A42EED310BD10B503460022A6
:10AF600040F2FB2403E0204600F004F8521C9A4211
:10AF7000F9D310BD002100E0491C8142FCD3704789
:10AF8000FFF7EEBE30B58FB005461C216846FDF7D1
:10AF900001FA00249DF80000019440F018008DF89B
:10AFA00000000394049405940694A8798DF8360063
:10AFB00041F23150ADF834000C949DF8300014216A
:10AFC00020F0FF008DF830009DF8310020F00F00D8
:10AFD000401C20F0F00010308DF831009DF8320058
:10AFE00020F00600801C20F0080040F011008DF8D1
:10AFF000320007A8FDF7CEF90DA807900CA808901D
:10B00000ADF824401720ADF82640ADF828000B9489
:10B01000A88805F1100307AA6946A2DF0FB030BD6A
:10B0200030B58FB005461C216846FDF7B3F9002402
:10B030009DF80000019440F004008DF80000039496
:10B04000049405940694A8798DF8360041F23250A4
:10B05000ADF834000C949DF83000142120F0FF006E
:10B060008DF830009DF8310020F00F00401C20F0DA
:10B07000F00010308DF831009DF8320020F006000D
:10B08000801C20F0180040F001008DF8320007A865
:10B09000FDF780F90DA807900CA80890ADF82440A2
:10B0A0001420ADF82640ADF828000B94A88805F1CF
:10B0B000080307AA6946A2DF0FB030BD0148406807
:10B0C000FDF718BA9C2B00200A460146014801F002
:10B0D000E3BE0000B42B0020C1EBC10101EB410233
:10B0E00001461423014801F001BF0000B42B0020E9
:10B0F0000A4610B50146054801F003FF040003D0DD
:10B100000121024801F0B2FE204610BDB42B002000
:10B1100070B58EB00E4605461C216846FDF73AF91B
:10B1200000249DF80000019440F002008DF800001A
:10B130000394049405940694A8798DF8360041F29E
:10B140003450ADF834000C949DF83000142120F0F8
:10B150000F00401C20F0F00010308DF830009DF8FA
:10B16000310020F0FF008DF831009DF8320020F012
:10B170000600801C20F0180040F001008DF832001D
:10B1800007A8FDF707F90DA807900CA80890022062
:10B19000ADF82400ADF82640ADF828000B96A8883D
:10B1A00005F1200307AA6946A2DF0EB070BD0000BA
:10B1B00001460148FFF716B9C83400203EB500200B
:10B1C00000900820ADF8000008480190084802905F
:10B1D00069460848FFF7C0F8041E04D006A240F2F2
:10B1E000D311FEF797FC20463EBD00007DCC010048
:10B1F0005DD30100C83400202E2E5C6D6F6B6F5F35
:10B200007372635C6466755C6E72665F6466752EED
:10B210006300000070B50A4D002300F50830AB70E4
:10B2200029DF002442F21076642000F079FEA8782D
:10B23000002803D1641CA4B2B442F5D370BD000051
:10B240009C2B002000B591B0402101A8FDF7A2F889
:10B25000254901A8FFF746FC0F212448FDF79AF87D
:10B260002148103890F83710009190F83630808ED1
:10B270001FA142BA1D48FEF70BF91C4905A8FFF7AC
:10B2800031FC1A480A210A38FDF784F81C481FA12E
:10B29000007800901B4803781B48027813480A384E
:10B2A000FEF7F6F8114909A80A39FFF71BFC9DF8CB
:10B2B000400020F00F00401C20F0F00010308DF80E
:10B2C00040009DF8410020F0FF008DF8410001A8EA
:10B2D000FFF736F9002804D00FA240F28F11FEF7D5
:10B2E00019FC11B000BD0000E42D00203A2C002014
:10B2F00025642F253032642F253032640000000091
:10B30000C22A0020C12A0020C02A00205625642E0F
:10B3100025642E25640000002E2E5C6D6F6B6F5F20
:10B320007372635C626C655C626C655F696E6974A4
:10B330002E6300000E4910B50A784C780023A24213
:10B3400012D0521CD2B20A70022A00D10B70084AE5
:10B350000B780C3252F8232002608868104420F0E9
:10B360007F408860012010BD0360002010BD0000F8
:10B37000742B00202DE9F04205468C1DC8886A898F
:10B380001231012600278946904212D16089022895
:10B390000FD10846FFF7AFFB10B185F8266001E03A
:10B3A00085F8267095F8263042460FA10020FDF75B
:10B3B0002BFC2088698A884212D1608902280FD12B
:10B3C0004846FFF798FB10B185F8276001E085F843
:10B3D000277095F82730424603A10020FDF714FCA2
:10B3E0000120BDE8F0820000656E61626C65206638
:10B3F000656525783D25640D0A00000038B50446D2
:10B4000017480D460068009003208DF801001A2CA3
:10B4100004D18DF8000000208DF8030000F040FFFB
:10B4200030B900F00FFF18B10EA23321FEF772FB06
:10B4300075B1144A6946204600F084FE18B109A28D
:10B440003921FEF767FB0121204600F029FE38BDB7
:10B45000204600F001FE204600F0D0FE38BD00007E
:10B46000C8E001002E2E5C6D6F6B6F5F7372635CC2
:10B470006472697665725C6770696F5F696E697422
:10B480002E630000C5CD010030B50446006885B0CC
:10B490000D46806800281CD014216846FCF77AFF0E
:10B4A0000195A0680490207910B101280DD104E025
:10B4B00001208DF80000206904E002208DF80000D2
:10B4C000E068000302906069039020688168684624
:10B4D000884705B030BD2DE9F04F8FB0054619A85B
:10B4E000984690E8C004914600241C2101A8DDF88C
:10B4F00060B0FCF74FFF2EB19DF8040040F0020051
:10B500008DF80400BBF1000F07D09DF8040020F077
:10B51000040040F008008DF804009DF80400CDF808
:10B5200008A067F304108DF80400049405940694B1
:10B53000079428788DF83600ADF834900094002EEA
:10B540000BD09DF8000020F00F0000F1010020F06A
:10B55000F00000F110008DF800009DF8010020F0CF
:10B560000F0000F1010020F0F00000F110008DF854
:10B5700001009DF8020020F0060000F102008DF8A5
:10B58000020003D020F008008DF8020000F0EF0068
:10B5900040F001008DF802004FF0140108A8FCF7FC
:10B5A000F9FE0DA80890CDF824D01D98ADF828001C
:10B5B0001420ADF82C001C98ADF82A4005EBC80308
:10B5C0000C90688808AA01A99B1DA2DF0FB0BDE8F6
:10B5D000F08F0000084B10B501221A60074A14686A
:10B5E000002CFCD0016010680028FCD000201860FE
:10B5F00010680028FCD010BD04E5014000E40140C3
:10B6000010B5002400F08EF8C0B2192800D9022429
:10B6100005480078402802D204EB8000C4B22046DE
:10B62000BDE81040FEF7B8B9EC2A002010B501249F
:10B6300000F078F8C0B24B2800D90324064890F8EF
:10B640004B00402802D204EB8000C4B22046BDE883
:10B650001040FEF7A1B90000D42D002001490120BF
:10B6600008707047C62A0020084B48881B889842FB
:10B6700007D10888A0F52063773B02D18888C01ED7
:10B6800082B203A10020FDF7BFBA0000C42A002047
:10B690005B676174745F6576745F68616E646C6526
:10B6A000725D20206D5F626C655F6E75735F6D61AA
:10B6B000785F646174615F6C656E200D0A00000044
:10B6C00010B50C490C4800F0ADFA20B10BA240F2C5
:10B6D0000711FEF71FFA1721074800F099FA002812
:10B6E00006D0BDE8104005A24FF48571FEF712BAEE
:10B6F00010BD000069B60100502C00202E2E5C6D9C
:10B700006F6B6F5F7372635C626C655C626C655FCC
:10B71000696E69742E63000001480078704700006C
:10B72000EC2A00200148007870470000F42A00202D
:10B73000401A20F07F402121B0FBF1F0704700005B
:10B7400010B517480221012301704370062383704E
:10B750001A23C370FF2303714C23002243718271AB
:10B76000C17115210D4C017210220E49601DFCF7AC
:10B77000F8FD0C4815223838B0F84810A4F8151018
:10B7800090F84A10E175007860760548611D09302F
:10B79000FCF7E7FD1E20E07010BD0000C62A002067
:10B7A000782C00200C2E00201CB500241148009499
:10B7B000019410F82E3F10A142786846FDF768FE0C
:10B7C000114802210F4A01700A21417084700C2136
:10B7D000C170092101710DA10B6840F8053F8988EE
:10B7E00081802D21817108480099C160102010715D
:10B7F0001CBD0000D42D0020253032782530327851
:10B8000000000000C62A0020972C00204255545406
:10B810004F4E2D000549012242F210730A70C87084
:10B820000022C1E901324A61704700009C2B0020D0
:10B830000146034802888A4200D000207047000079
:10B84000802E002004480088A0F57F41FF3901D0F8
:10B850000120704700207047C42A0020F0B584887A
:10B86000A518944200D82246A41AC288D6189A4233
:10B8700000D81346D21A4B880788BB420CD34088A5
:10B88000834209D88888A04206D3A84204D8C88831
:10B89000904201D3B04201D90020F0BD0120F0BD9B
:10B8A00001211A20FFF7AABD02490320C1F80007B1
:10B8B00000F002B80C00005010B5074A01210748FB
:10B8C000FEF766F9002805D0BDE8104004A22F213C
:10B8D000FEF720B910BD000099B90100C4E00100D5
:10B8E0002E2E5C6D6F6B6F5F7372635C6472697632
:10B8F00065725C6C65645F6D616E6167652E630087
:10B9000070B5244C607800281CD0401E6070204622
:10B910002378018982880125ABB14088401E80B21E
:10B92000012B1ED0022B0DD1608000280AD1491EA8
:10B930000804000C208120D062800121032000F047
:10B9400039FE257070BD0029FCD0628001210320E2
:10B9500000F030FE608800B965802078401C2070BF
:10B9600070BD60800028FBD1E088608000B96580F0
:10B970000021032000F01EFEEFE70020207032229D
:10B98000012101F0B5FDBDE870400021032000F069
:10B9900011BE0000102B002002484178491C417064
:10B9A00070470000102B002006490120086006485F
:10B9B0000168C1F300410029FAD1044900208870D0
:10B9C000704700000C00004018040040682F002061
:10B9D00017210180418000210171417170470000F1
:10B9E0002DE9F047394E002780463D46DFF8E090CC
:10B9F000D6F804A057E003D00446D0F81C8035E008
:10BA000099F8002002EB4201521CD2B289F80020C2
:10BA100009EBC10199F80230091D9A4201D189F858
:10BA2000005048680A780446012A12D0022A02D03F
:10BA3000032A3BD108E002F0DDF800B101272574AC
:10BA400034E00574C06900E070680028F9D17060C6
:10BA50002CE0207C50BB88686060C868A0600869E2
:10BA6000E0604869A061F07800B165606268B16823
:10BA7000184B501A20F07F40984202D2A168084427
:10BA800006E0881AA16820F07F40814202D9081A96
:10BA9000206000E0256065600120A56020742046DC
:10BAA000E56102F089F8B8F10000A4D199F800101E
:10BAB00099F801008142A3D117B97168514502D0AC
:10BAC0000120BDE8F0870020FBE70000742B002078
:10BAD00040300020FFFF7F0008B51AA000901F48EB
:10BAE0001BA31FA102780020FDF78EF84FF08050B5
:10BAF000D0F80C012AA182020020FDF785F8002170
:10BB00000846FFF72FF8FCF741FFFEF7FFF9012089
:10BB10003DDFFCF7C7FC29A10020FDF775F800BF49
:10BB2000FCF75AFFFFF7ECFE01F0A0FF01F056FE14
:10BB300001F0E0FF01F0D0FF01F0C4FDFCF7F0FCE4
:10BB4000EEE7000031373A33313A3230000000007E
:10BB50004A756E203137203230323200C02A002040
:10BB60002D2D2D2D2D63757272656E742073797372
:10BB700020766572206973202573202C6C617374A4
:10BB8000206D6F646966792074696D652069732022
:10BB90002573202573202D2D2D2D2D2D0D0A000010
:10BBA0002D2D2D636869702072616D2073697A652F
:10BBB0002069732025780D0A00000000646576690D
:10BBC00063652073746172742E2E2E2E2E2E2E2EEF
:10BBD0002E0D0A0010B50A8849888A4203D1FCF765
:10BBE0005BFB012010BD002010BD70B50C46054662
:10BBF000FCF735FB002802D061882868084470BD36
:10BC0000C20800F007030120895C98400840704793
:10BC100018B1172903D0072070470E207047018004
:10BC20000020704710B560B1C160172120F8021BD9
:10BC300020F8021B1B2100F8021BFFF7C9FE0020A1
:10BC400010BD0E2010BD00002DE9FC4786880C4673
:10BC5000002E4AD1018801270025102908D011297A
:10BC600020D0DFF8EC903A2920D0552965D13EE06C
:10BC7000C07B04F10608012802D12088A8F8000042
:10BC8000B8F80010B8F80200814256D930469EDF5D
:10BC900010B1112803D050E088F805704DE088F805
:10BCA00004704DE0A01DFFF793FE46E02246408958
:10BCB00034F8061F814200D808466080172800D259
:10BCC00017206080D06870B1607960B1D9E9001048
:10BCD000CDE90010ADF802606088ADF80400D368CB
:10BCE00069461046984765712571BDE8FC87C08894
:10BCF00004F10608172800D21720B8F80010814276
:10BD000000D80846A8F8020088F804502846B8F879
:10BD10000010ADDF98F8050078B9E06868B1D9E99E
:10BD20000210CDE90010ADF80260B8F80200ADF8DD
:10BD30000400E268204669469047A07A0028D4D0E3
:10BD40002846E1889EDF0028CFD1A572E772CCE7B4
:10BD5000CCE0010000F180400068002800D0012004
:10BD6000704708B500F18040002101600068009034
:10BD700008BD4FF47A71484300F0D2B800283ED095
:10BD80001F49204A096800BF00BF00BF00BF00BFB5
:10BD900000BF00BF00BF91422FD000BF00BF00BF57
:10BDA00000BF00BF00BF00BF00BF00BF00BF00BF9B
:10BDB00000BF00BF00BF00BF00BF00BF00BF00BF8B
:10BDC00000BF00BF00BF00BF00BF00BF00BF00BF7B
:10BDD00000BF00BF00BF00BF00BF00BF00BF00BF6B
:10BDE00000BF00BF00BF00BF00BF00BF00BF00BF5B
:10BDF00000BF00BF00BF00BF00BF0138C3D1704704
:10BE0000982B00200024F40000283ED01F49204A2F
:10BE1000096800BF00BF00BF00BF00BF00BF00BF78
:10BE200000BF91422FD000BF00BF00BF00BF00BFC6
:10BE300000BF00BF00BF00BF00BF00BF00BF00BF0A
:10BE400000BF00BF00BF00BF00BF00BF00BF00BFFA
:10BE500000BF00BF00BF00BF00BF00BF00BF00BFEA
:10BE600000BF00BF00BF00BF00BF00BF00BF00BFDA
:10BE700000BF00BF00BF00BF00BF00BF00BF00BFCA
:10BE800000BF00BF00BF0138C3D17047982B00200E
:10BE90000024F40000283ED01F49204A096800BF52
:10BEA00000BF00BF00BF00BF00BF00BF00BF914286
:10BEB0002FD000BF00BF00BF00BF00BF00BF00BF4A
:10BEC00000BF00BF00BF00BF00BF00BF00BF00BF7A
:10BED00000BF00BF00BF00BF00BF00BF00BF00BF6A
:10BEE00000BF00BF00BF00BF00BF00BF00BF00BF5A
:10BEF00000BF00BF00BF00BF00BF00BF00BF00BF4A
:10BF000000BF00BF00BF00BF00BF00BF00BF00BF39
:10BF100000BF0138C3D17047982B00200024F400E3
:10BF200000283ED01F49204A096800BF00BF00BF5B
:10BF300000BF00BF00BF00BF00BF91422FD000BFB5
:10BF400000BF00BF00BF00BF00BF00BF00BF00BFF9
:10BF500000BF00BF00BF00BF00BF00BF00BF00BFE9
:10BF600000BF00BF00BF00BF00BF00BF00BF00BFD9
:10BF700000BF00BF00BF00BF00BF00BF00BF00BFC9
:10BF800000BF00BF00BF00BF00BF00BF00BF00BFB9
:10BF900000BF00BF00BF00BF00BF00BF00BF01382F
:10BFA000C3D17047982B00200024F40070B50F4CCB
:10BFB0000025207808B1852516E00021A160616088
:10BFC0002161E1604FF0E020D0F80001012610F07F
:10BFD000010F03D10721002000F022F800F0DEFC61
:10BFE00008B9034806602670284670BD682F0020F7
:10BFF0001805004008B500208DF800006846FDF7E0
:10C0000059FE0648C168491EC160C06808B9FFF7FB
:10C01000CBFC9DF80000FDF771FE08BD682F0020E5
:10C020004907090E002806DA00F00F0202F1E022AB
:10C0300082F8141D03E000F1E02282F8001400F001
:10C040001F02012191404009800000F1E020C0F86A
:10C050008012C0F80011704710B5044600F09AFE37
:10C0600028B12046BDE81040002100F092BA2046D9
:10C0700000F09CFE00280FD02046FEF7E7FD074A9F
:10C0800002EB8001D1F8103523F00103C1F810351F
:10C0900001218140C2F8081310BD0000006000407B
:10C0A0002DE9F0418846054600F074FE234E002835
:10C0B00028461AD0FEF7CAFD304490F8480080099F
:10C0C000032802D001280ED007E04FF0A040D0F89E
:10C0D0001005E84010F0010F05D003212846BDE807
:10C0E000F04100F056BA0221F8E700F05FFE0028A8
:10C0F00022D02846FEF7AAFD04464FF4807000EBDC
:10C1000084000F4F81B207EB8400D0F8102542F075
:10C110000102C0F81025084600F076FAB8F1000FC9
:10C120000AD02846FEF792FD56F82000002803D0DA
:10C130000120A040C7F80403BDE8F0817C2F002057
:10C14000006000402DE9FC41DFF8A480044608EBC4
:10C150000400002790F930001346C0170E46401C1B
:10C1600001D0082741E0F27819462046FEF74AFD43
:10C170000546401C38D0B07850B14FF0A04000EBDD
:10C180008400D0F8001721F00201C0F8001707E082
:10C1900000217378204600910A46019100F0DEF9F3
:10C1A000F078C0B11348317800EB8500D0F8102545
:10C1B000114B1A40C0F810254FF4F8524FF4403399
:10C1C00002EA042203EA01410A43D0F810150A43A7
:10C1D000C0F8102509E008EB0500327810F8481F78
:10C1E00041EA8211017000E004273846BDE8FC8175
:10C1F0007C2F002000600040FFE0FCFF10B50446EB
:10C20000FFF72AFF204600F0D1FD40B12046FEF79F
:10C210001DFD0A4A002102EB8000C0F810152046DF
:10C2200000F0AEF92046FEF711FDC0B2FEF7DCFCCF
:10C230000349FF20214481F8300010BD0060004018
:10C240007C2F002070B5144D95F8540008B10820DB
:10C2500070BD0020411E2A18401CC0B282F8301068
:10C260002028F8D300242046FEF7BEFC641CE4B26C
:10C270000C2CF8D307210620FFF7D2FE4FF4BE7036
:10C2800000F0C2F905494FF00040C1F80403012055
:10C2900085F85400002070BD7C2F00200060004015
:10C2A000034890F85400002800D001207047000097
:10C2B0007C2F00202DE9F041254C064612200D462A
:10C2C000C4F808032348017C022918D0027C0146E7
:10C2D0004FF4807891F82E10012A12D00222C4F86F
:10C2E000042301270774466005810022C26021B340
:10C2F000458390F82D10304600F098F925E0122083
:10C3000002E0C2682AB10220C4F804031120BDE88B
:10C31000F081C660058361B94746384600F0CCF924
:10C320000028FAD0384600F0CFF92946304600F010
:10C330007DF90220C4F8040307E02946304600F0E6
:10C3400075F9404600F0C0F927600020DFE70000E3
:10C3500000700040F02F002070B50C4614490546CF
:10C36000087C08B1112070BD2079124E08B1012857
:10C3700001D10020306001EB4500027F1AB911F8AD
:10C380002D2F521C0A70E1790177217A41772146DD
:10C39000284600F053F9227AE179284600F082F924
:10C3A000207908B1012801D101203060002070BD42
:10C3B000F02F0020007500402DE9F0411D4C05468E
:10C3C00094F82C0010B10820BDE8F08109B115B136
:10C3D00002E00720F8E7184D44F8101B17492878A9
:10C3E0000860091D68780860E878A077012727773A
:10C3F0000020207060776060114EE0776FF00040A1
:10C40000C6F808034FF4827000F05EF9B01500F032
:10C410005BF9A9780720FFF703FE0220C6F80403A2
:10C42000A07F10B10120C6F804030448F03807606B
:10C430000020C9E7F02F0020E0E00100F075004087
:10C44000007000400248007C002800D001207047A6
:10C45000F02F0020084900200A7C012A01D0082082
:10C46000704791F82E30054A01210BB111607047D9
:10C47000024A121DFAE70000F02F00200070004071
:10C48000044801214174007A08B10020704701205E
:10C490007047000044320020012801D0032808D151
:10C4A0000449002201284A7400D00020087400F0DA
:10C4B0003FBD70474432002070B5254C0246207ABB
:10C4C000012837D0022841D122480023022A0068DF
:10C4D00002D0032A2ED11BE0E360017911B10129BA
:10C4E00028D10DE0D0E90565711B4FF48056B142AB
:10C4F00000D33146294481614569A9420ED019E033
:10C500000169491C01614269914213D1237217E00C
:10C51000E168491CE16008290CD9E3602372022A12
:10C520000ED00D21FEF7B0FF0B480A49091D006827
:10C53000FFF750FB607C28B1BDE8704000F034BAD2
:10C540000021EFE7BDE8704000F0F2BC70BD0000D4
:10C5500044320020882B0020E4E0010070B541EA5D
:10C560004201DDE904564FF0A04441EA830141EA6B
:10C57000052104EB800041EA0641C0F8001770BDB8
:10C580001CB5002100910B4601220191FFF7E6FF47
:10C590001CBD4FF0A04202EB8000D0F8002722F42F
:10C5A0004032C0F80027D0F8002742EA0141C0F825
:10C5B0000017704701224FF0A043824011B1C3F829
:10C5C00008257047C3F80C25704701224FF0A0439F
:10C5D000824011B1C3F808257047C3F80C25704795
:10C5E00018B5084B6C4601441B68009306E000BF79
:10C5F00054F82030D3F81035401C08C28142F7D8D7
:10C6000018BD0000DCE00100034908B50844002122
:10C6100001600068009008BD006000400249405879
:10C62000012800D00020704700600040024A1060DE
:10C63000101D0160704700002C76004010B50A788C
:10C640004B78302402F0030204EA03131A438B7878
:10C650004FF4E06404EA03231A43CB784FF4805488
:10C6600004EA03331A430B794FF4E02404EA03434A
:10C670001A434B794FF4801404EA03531A438B791D
:10C68000240104EA03631A43030105481844C0F86F
:10C690001825CA79097AC0F81415C0F8102510BDFC
:10C6A00000700040030103481844C0F81425C0F886
:10C6B000101570470070004002494058002800D013
:10C6C0000120704700700040034908B5084400226B
:10C6D00002600068009008BD00700040014609B982
:10C6E0000E2070470248006808600020F9E700004B
:10C6F00098E20100FEB505460C462046FFF7EEFF26
:10C7000006460EB13046FEBD00200090019002901A
:10C710008DF8005001208DF802000321ADF80410BF
:10C7200069462020226869DF0646002000900190BB
:10C73000029001208DF8000069464020226869DFE0
:10C740000646002000900190029003208DF8000022
:10C7500069460120226869DF0646002000900190AA
:10C7600002904FF4AF5000906946A120226869DF23
:10C77000064600200090019002908DF80000694666
:10C78000A020226869DF06460020BCE72DE9F041C1
:10C79000044625682A4611A10020FCF735FA2046F8
:10C7A00060DF06462068A84214D02A4612A1002065
:10C7B0002368FCF729FA00F007FC2168471A3A467B
:10C7C00019A10020FCF720FA00F0FEFB2168401AB6
:10C7D0001E4908603046BDE8F081000052414D20FE
:10C7E00073746172747320617420307825782E2EF2
:10C7F0002E2E0D0A0000000052414D20737461720C
:10C80000747320617420307825782C2063616E2049
:10C8100062652061646A757374656420746F20308A
:10C820007825782E0D0A000052414D2073697A65F3
:10C830002063616E2062652061646A75737465644B
:10C8400020746F20307825782E0D0A00942B00205C
:10C850002DE9F04190B080461CE02C20049004A902
:10C8600005A861DF044604B115E005AD114901A832
:10C8700000F0E0F809E000BF039806463768284654
:10C880007168B84701A800F0ECF800BF03980028D1
:10C89000F1D100BFE1E700BF052C07D000BF06A221
:10C8A0004FF491712046FDF735F900BF10B0BDE897
:10C8B000F08100008CE201002E2E5C636F6D706FC2
:10C8C0006E656E74735C736F6674646576696365B8
:10C8D0005C636F6D6D6F6E5C6E72665F7364685FD4
:10C8E000626C652E6300000010B50D4C2078A0B17D
:10C8F0000120A07000F094FC11280CD0022000F060
:10C90000A7FC11DF002807D12070A07000F060FDA7
:10C91000032000F09DFC002010BD082010BD000089
:10C92000902B002038B5114C207808B1082038BD74
:10C930000125A570002000F073FC112814D0002000
:10C9400000F086FC0A480B4900680090684610DF3A
:10C950000028ECD12570A070607000F0F3FD00F0AD
:10C960006BFD012000F074FC002038BD902B0020EE
:10C9700008E20100E99901000EB50749684600F098
:10C9800059F805E0D0E900108847684600F069F8DA
:10C9900002980028F6D10EBD24E20100014800787B
:10C9A00070470000902B00200548817819B100786D
:10C9B00018B1FFF799BF08207047FFF7B3BF000019
:10C9C000902B00201FB5684648DF40B1052816D0DF
:10C9D00004B00BA2BDE810406B21FDF79BB81449D1
:10C9E00001A800F027F806E0D0E900210098904760
:10C9F00001A800F036F803980028E4D0F4E71FBD42
:10CA00002E2E5C636F6D706F6E656E74735C736FEA
:10CA100066746465766963655C636F6D6D6F6E5C8B
:10CA20006E72665F7364685F736F632E63000000ED
:10CA300060E20100016009684160AFF3008010B559
:10CA4000D0E900215368994201D1002104E0D1E9E5
:10CA50000034A34202D01946816010BD0831416004
:10CA6000F0E7816800290BD0026892680A4482606E
:10CA700041684B689A4203D108314160FFF7DFBF3C
:10CA80007047000010B50446FDF7F0FD214604484C
:10CA900000F05EF92046BDE81040FEF789BB0000BB
:10CAA000E82C00200C4A10B502F1F0030EE0991AB0
:10CAB000C91001EBD171491002EBC1010C6884422D
:10CAC00001D90B4602E005D201F108029A42EED3E9
:10CAD000002010BD486810BD08E1010000B5FFF757
:10CAE000E1FF002800D1014800BD0000F4E0010092
:10CAF0004058002800D00120704708B5002242505D
:10CB00004058009008BD30B58DB01446EB228DF82A
:10CB100000208DF801008DF802106D468DF803306D
:10CB200004224BB1002005E0215CA954521C401C9A
:10CB300092B280B29842F7D329460020FBF78AFED2
:10CB40000DB030BD007800280AD106483B2100888E
:10CB500076DF002804D004A240F24D11FCF7DABFC2
:10CB600070470000C42A00202E2E5C6D6F6B6F5F33
:10CB70007372635C626C655C626C655F696E69743C
:10CB80002E6300002DE9F0418AB001274FF0020822
:10CB90000C468DF810808DF816700989ADF81810C4
:10CBA0006189ADF81A1004F10C010026CDE90716D1
:10CBB0000546ADF8208003A8ADF822600990A98A47
:10CBC000288808AAA5DF18B1E96AC1B1884716E02C
:10CBD00003A8FDF790FF90B1ADF81460288804A970
:10CBE000A8DF002812D1217B04F10D00092943D2CE
:10CBF000DFE801F0420F1D2326282A402C0040F2D6
:10CC0000FD10ADF81400288804A9A8DF0AB0BDE81B
:10CC1000F0818DF800600CE006221CE08DF80870B1
:10CC20000190AA6A6946284690470020EEE78DF8F1
:10CC300000706289022AF1D2EEE78DF80080F0E7F9
:10CC4000032012E0042010E005200EE06089032894
:10CC500005D2032208212846FDF742FCD6E7B4F8A6
:10CC60000D00ADF8040018B106208DF80000D8E7DB
:10CC70000720FAE70920F8E70322ECE710B50B7864
:10CC80001E4A092B2BD2DFE803F00F1528052A2AAC
:10CC90002F352B0001220421FDF722FC00281ED095
:10CCA00017A240F2232114E048680078BDE8104044
:10CCB000FEF7B0BD022313704968097801290ED12F
:10CCC00001220221FDF70CFC002808D00CA24FF431
:10CCD0001571BDE81040FCF71DBF0320107010BD9A
:10CCE000BDE8104000F01AB8012050708888D0606C
:10CCF000106110BD00205070D06010BD9C2B002032
:10CD00002E2E5C6D6F6B6F5F7372635C6466755C17
:10CD10006E72665F6466752E630000000A7A48686A
:10CD20000A490B78012B06D0022B0AD0032B07D11E
:10CD30001146FEF7C9B9C27A806862F31F60486085
:10CD40007047104430F8020C886070479C2B00201C
:10CD500070B5054608880C46102808D0112806D062
:10CD6000502805D0572802D109490120087070BD0C
:10CD70002846FEF7FFFA2046A41DEB882288618929
:10CD800012309A42F3D1BDE87040C9B2FDF7EEB956
:10CD9000E02A00200449084490F93000082801DB0B
:10CDA00001207047002070477C2F00200449084470
:10CDB00090F93000082801D2012070470020704708
:10CDC0007C2F00204FF0A040D0F81005800E10F00E
:10CDD000010F06D103490120087003A10020FBF7D1
:10CDE00013BF70471A2B00206B65795F6972715F02
:10CDF00068616E642E2E2E2E0D0A000070B50D0097
:10CE0000044604D10CA265210020FCF783FE24B95E
:10CE100009A266210020FCF77DFE28782070698831
:10CE20006170090AA170A988E170090A2171E88876
:10CE30006071000AA07170BD2E2E5C636F6D706F03
:10CE40006E656E74735C626C655C626C655F736565
:10CE50007276696365735C626C655F6469735C625A
:10CE60006C655F6469732E630000000030B50029B3
:10CE700011D000220DE0447883789C420BD05B1CDB
:10CE8000C478DBB2B3FBF4F504FB1533521C83709A
:10CE900092B28A42EFD330BD2DE9F04104460078CA
:10CEA00015460126A84201D2054600266278E77899
:10CEB000531CB3FBF7FC07FB1C33A778BB4200D124
:10CEC00000266368401C12FB00372A46781CFBF7DB
:10CED00048FA3D706078E178401CC0B2B0FBF1F2D6
:10CEE00001FB120060703046BDE8F08110B50370A0
:10CEF0000024447084705B1C4160B2FBF3F1C1708C
:10CF000010BD10B50B46447881788C4201D10020C9
:10CF100010BD44680078401C11FB004111F8010B62
:10CF2000107002461846FBF71CFA012010BD0000E5
:10CF30002DE9F041214C0025214E207A012730B9FE
:10CF40002048311D0068FEF750FE306038B10220E5
:10CF500020723168087928B101281ED116E0656079
:10CF6000BDE8F081D1E90503C01A4FF48052904228
:10CF700000D31046B7EB900F01D2820800E00122E7
:10CF80000869C9681844194429DF03E0D1E903019D
:10CF9000084428DF38B111280ED003213068FEF78D
:10CFA00073FA2572DBE7207C0028D9D1BDE8F04177
:10CFB00000210220FFF780BA2772D1E74432002017
:10CFC000882B0020E4E0010002480068810201F1A2
:10CFD000005070470C01001010B505210920FBF727
:10CFE000EFFE0A4A002140F6B8339088984201D3F8
:10CFF000642108E0B0F5FA6F05D90A21A0F5FA60BE
:10D0000090FBF1F0C1B2117010BD0000F42A0020B5
:10D0100070B554224FF430311E48FBF773FB1D4CA2
:10D020001D4E2078E42813D16078E42810D1002028
:10D030004C223070542319A1FBF7E6FDA078E1786B
:10D0400041EA00254C2D08D21BA10020FBF7DCFD96
:10D0500000F018FF0120707070BD60190021027986
:10D060000846241D03E0235C5940401C80B2A842BE
:10D07000F9D3914203D017A10020FBF7C5FD054964
:10D08000A831002003E0225C0A54401C80B2A84270
:10D09000F9D370BD2C2D0020042B00206C656E5F31
:10D0A0007265616C3D25642C6275665F73697A6593
:10D0B0006F663D25640D0A00726561642066616CCF
:10D0C00073683A206C656E206E6F7420747275659B
:10D0D0000D0A0000726561642066616C73683A2015
:10D0E00063616C635F786F72206E6F742074727509
:10D0F000650D0A0070B5012670044FF0E02100258F
:10D10000C1F88001084C4010C4F84803C4F8080373
:10D1100066602F20FEF7BEFEA660044C2F20A5609F
:10D12000FEF7B8FEA57070BD00100140742B002002
:10D130001FB501238DF800308DF808100192D0E959
:10D140000012684690471FBD0178002913D140683E
:10D1500009494FF41672B0F90000886010FB02F024
:10D16000C21700EB9250801200EB40004FF6FF72A6
:10D1700002EA400088807047F42A0020014901201B
:10D1800048707047042B002070B50D460446FCF72C
:10D19000A1F970B12846FCF7AFF968B16807000E35
:10D1A000002C0CDA04F00F0101F1E02181F8140DDC
:10D1B00009E042F2010070BD42F2020070BD04F1CC
:10D1C000E02484F80004002070BD000038B5002180
:10D1D000012558B101280ED003280BD107210020CA
:10D1E000FEF71EFFBDE83840FEF704BF4FF0E02019
:10D1F000C0F8805138BD8DF800106846FCF75AFD24
:10D20000064C207808B9FEF7D1FEE068401CE060CB
:10D21000A5709DF80000FCF771FD38BD682F002057
:10D220003EB5044609496846FFF704FC08E000BF24
:10D23000D0E900212046904730B16846FFF711FC45
:10D2400002980028F4D13EBD11203EBD0CE2010041
:10D250003EB5044608496846FFF7ECFB07E000BF0F
:10D26000D0E90021204690476846FFF7FAFB029874
:10D270000028F5D13EBD000018E2010070B500287D
:10D28000049D18D0002916D0002A14D05FF00004A5
:10D2900030F814609E420FD100200123A34008E023
:10D2A00001EB800426680DB11E4300E09E43401C44
:10D2B00026609042F4D370BD641C202CE8D370BD6E
:10D2C00070B5054600242146284600F00AF808B14A
:10D2D000204670BD641CA4B2202CF4D34FF6FF701E
:10D2E00070BD01228A40024201D001207047002017
:10D2F00070472DE9F04192B080464FF0000017468C
:10D300000D00009012D000246E46A1B23846FFF7FF
:10D31000E8FF40B1009935F8140006EB4101888020
:10D320000098401C0090641C202CEED344226946D7
:10D330004046FBF716F812B0BDE8F08108B500933F
:10D3400013460122FFF79AFF08BD000002498969D0
:10D35000002900D008477047942E0020002804D0F0
:10D3600002A24FF4F571FCF7D5BB70472E2E5C6D11
:10D370006F6B6F5F7372635C6466755C6E72665F21
:10D380006466752E6300000010B53F2806D902467A
:10D3900004A10020FBF738FC002010BDFBF764FD62
:10D3A000012010BD5345542056414C5545204F5542
:10D3B00054204F462052414E4745205B25645D2155
:10D3C0000D0A0000002801D1FDF70ABD70470000DA
:10D3D00010B51620FCF77EF848B10B4882684FF470
:10D3E000800162B1016821F48001016010BDBDE8D7
:10D3F000104042F2010005A2A521FCF78BBB4FF0C3
:10D40000E020C0F8801110BDAC3100202E2E5C63EE
:10D410006F6D706F6E656E74735C736F6674646548
:10D42000766963655C636F6D6D6F6E5C6E72665F6F
:10D430007364682E6300000010B51620FCF74AF8EC
:10D4400080B1104890F800044009FCF755F860B12D
:10D450000D4882684FF480017AB1016841F480017F
:10D46000016010BD42F2010001E042F20200BDE89D
:10D47000104006A29921FCF74DBB4FF0E020C0F808
:10D48000001110BD16E000E0AC3100202E2E5C63D0
:10D490006F6D706F6E656E74735C736F66746465C8
:10D4A000766963655C636F6D6D6F6E5C6E72665FEF
:10D4B0007364682E630000000B4A10B500211170E0
:10D4C000410CC0034FF4FA72801841F10001520080
:10D4D0000023FAF715FF0146044800220068BDE862
:10D4E0001040FCF793BB0000C62A0020A0E001001A
:10D4F00010B50E4C88B1510CD0034FF4FA7280185D
:10D5000041F1000152000023FAF7FAFE01462068BB
:10D51000BDE810400022FCF779BB2068FCF7BAFB9D
:10D52000BDE8104002A10020FBF76EBBC4E0010083
:10D53000206C65642074696D65722073746F700D62
:10D540000A00000010B507211620FFF71DFE18B1D4
:10D5500008A2B821FCF7DEFA07211520FFF714FE18
:10D56000002805D0BDE8104002A2BA21FCF7D2BACB
:10D5700010BD00002E2E5C636F6D706F6E656E7453
:10D58000735C736F66746465766963655C636F6D05
:10D590006D6F6E5C6E72665F7364682E6300000070
:10D5A00070B50C00054604D110A24D210020FCF7F7
:10D5B000B1FA25B90DA24E210020FCF7ABFA207874
:10D5C00028702088000A68702068000CA870206805
:10D5D000000EE87020792871207A68712089000A8D
:10D5E000A871A068000CE87170BD00002E2E5C636D
:10D5F0006F6D706F6E656E74735C626C655C626C8F
:10D60000655F73657276696365735C626C655F64A0
:10D6100069735C626C655F6469732E63000000006F
:10D620000149012008707047082B002010B5074AF7
:10D6300001210748FCF7ACFA18B106A22521FCF736
:10D6400069FABDE8104000F017B8000021D60100CB
:10D65000C0E001002E2E5C6D6F6B6F5F7372635CB8
:10D660006472697665725C73797374656D5F7469F1
:10D670006D652E6300000000084810B500224FF4CD
:10D6800000410068FCF7C2FA002805D0BDE8104050
:10D6900003A22F21FCF73EBA10BD0000C0E001003C
:10D6A0002E2E5C6D6F6B6F5F7372635C6472697654
:10D6B00065725C73797374656D5F74696D652E63F3
:10D6C0000000000010B5FEF7BDF8002827D174DF78
:10D6D000134C2078002822D0A07810B101281AD14C
:10D6E0000AE0FDF78DFF6420FFF7E6FE0DA10020A4
:10D6F000FBF78AFA01200DE0FDF798FF10A100204A
:10D70000FBF782FA16484FF47A7140884843FFF7D6
:10D71000D3FE0020A070BDE81040FCF751BC10BD46
:10D72000C62A00206164762073656E642066697283
:10D730007374207061636B6574202D2D2D0D0A00AC
:10D740006164762073656E64207365636F6E642018
:10D750007061636B6574202D2D2D0D0A0000000093
:10D76000D42D002010B50C480C4990F9040091F913
:10D77000002090420ED0087077DF041E03D008A26C
:10D780007421FCF7C7F92246BDE810400BA1002028
:10D79000FBF73ABA10BD0000D42D0020E12A00208A
:10D7A0002E2E5C6D6F6B6F5F7372635C636F6D6D5C
:10D7B0005C626C655F636F6D6D2E63002D2D2D2D8A
:10D7C0005478506F776572206572726F7220636F44
:10D7D0006465205B25645D0D0A0000002DE9F04FB3
:10D7E000ADF5417D0024954D8DF81440B594297810
:10D7F000204600297ED0814668606420FEF7B9FA91
:10D800008F4806688346AA460DE0DBF800005D46B7
:10D810003146FDF78DFFB0F5FA7F04D32E68204620
:10D82000641C282867D2DAF8040055460028ECD09A
:10D830000027FDF743FC012211468248FCF750FE09
:10D84000002406AE14214BA8BC94FDF745FC7C488F
:10D85000A0460068DFF8ECB1AA460490BBF80010BF
:10D86000A1F57F40FF3846D0754D28680499FDF733
:10D870005FFFB0F5FA7F05D32868049038467F1C17
:10D88000782876D28DF8149005A9B7A8FDF730FC5A
:10D89000DAF81420DAF8041022448A4201D34FF057
:10D8A000010850EA0800D9D04FF0A040D0F8041584
:10D8B00008228A43C0F8082501F00801C0F80C15B9
:10D8C0009DF81420002732B33019B7A9FAF749FDA3
:10D8D0009DF81400B59904440844B590FDF76CFA1E
:10D8E000FF2C1AD8B8F1000FB8D025042D0CA4EBEA
:10D8F000050401E043E03CE0B0D0AA083146DAF884
:10D900001400FDF787FCDAF814004119CAF8141066
:10D910007CB100200BE0B598E0E74FF48075A4F5EA
:10D920008074EAE72A18B25C3254401C80B2A042EC
:10D93000F8D35546B1F5826F06D9BC9820B90120BD
:10D94000BC90FDF709FAA0B169686869884285D37F
:10D9500006AABEA9BDA8FDF7EFF9BDF8F402DAF8F2
:10D960000810544688420ED0052203213548FCF7A2
:10D97000B7FD8AF8009000210320FEF726FE0DF582
:10D98000417DBDE8F08F012203212E48FCF7A8FD60
:10D990002C48AA210C38017001214170802181702E
:10D9A00080F8039061680B0C03710B0A437181715D
:10D9B000BDF8F8120B0AC3710172022141722021D5
:10D9C000817280F80B904FF4FA70FEF7D2F95C4642
:10D9D000BBF80000132176DF4FF6FF7020804FF474
:10D9E000FA60FEF7C6F901210320FEF7EEFD11DF14
:10D9F00020B115A240F26311FCF78CF8FCF79AFCF9
:10DA00004FF47A742046FEF7B4F90E480C210C3816
:10DA1000FDF7A8F82046FEF7ACF900210320FEF739
:10DA2000D4FDBFF34F8F0F4801680F4A01F4E06146
:10DA300011430160BFF34F8F00BFFDE79C2B002017
:10DA400004150140C83400202E2E5C6D6F6B6F5F93
:10DA50007372635C6466755C6E72665F6466752E75
:10DA6000630000000CED00E00400FA052DE9F04130
:10DA7000184C0025E17801290AD020460126C088EB
:10DA80000327401C80B2022907D0032917D10CE0DC
:10DA9000FFF7A2FA0220E07011E0E0801E280ED30A
:10DAA000FFF79AFAA670E58007E0E080B0F5E16F35
:10DAB00005D3FFF791FAE580A670E77002E0A07841
:10DAC000002804D0A570BDE8F041FCF721BBBDE8FB
:10DAD000F0810000F42A002010B5054C6078002881
